:100000000C942A000C9447000C9447000C94470071
:100010000C9447000C9447000C9447000C94470044
:100020000C9447000C9447000C9447000C94470034
:100030000C9447000C9447000C9447000C94470024
:100040000C9447000C9447000C9447000C94470014
:100050000C94470011241FBECFE5D8E0DEBFCDBF12
:1000600010E0A0E6B0E0E8EAF4E002C005900D92EE
:10007000A636B107D9F720E0A6E6B0E001C01D9290
:10008000A636B207E1F70E9464010C9452020C9468
:100090000000CF93C82F40E061E088E390E00E9429
:1000A000920140E062E088E390E00E9492018FE9D3
:1000B0009FE00197F1F700C0000041E063E088E3B2
:1000C00090E00E9492018FE99FE00197F1F700C054
:1000D00000008BB38F708BBB8BB39C2F907F892BD1
:1000E0008BBB8FE99FE00197F1F700C0000040E073
:1000F00063E088E390E00E9492018FE99FE001971E
:10010000F1F700C0000041E063E088E390E00E9466
:1001100092018FE99FE00197F1F700C000008BB3D7
:100120008F708BBB8BB3C295C07FC82BCBBB8FE9C5
:100130009FE00197F1F700C0000040E063E088E332
:1001400090E00E9492018FE99FE00197F1F700C0D3
:100150000000CF9108952FEF89EF90E0215080406B
:100160009040E1F700C0000041E061E087E390E0EB
:100170000E94740141E062E087E390E00E94740114
:1001800041E063E087E390E00E9474018AB3806FEE
:100190008ABB82E00E94490088E20E9449008CE00C
:1001A0000E94490081E00E9449000895CF93C82F22
:1001B00041E061E088E390E00E94920140E062E06B
:1001C00088E390E00E9492018FE99FE00197F1F7A8
:1001D00000C0000041E063E088E390E00E949201EB
:1001E0008FE99FE00197F1F700C000008BB38F709B
:1001F0008BBB8BB39C2F907F892B8BBB8FE99FE0B0
:100200000197F1F700C0000040E063E088E390E070
:100210000E9492018FE99FE00197F1F700C0000072
:1002200041E063E088E390E00E9492018FE99FE063
:100230000197F1F700C000008BB38F708BBB8BB3BD
:10024000C295C07FC82BCBBB8FE99FE00197F1F728
:1002500000C0000040E063E088E390E00E9492016B
:100260008FE99FE00197F1F700C00000CF9108955A
:10027000CF93DF93EC0103C00E94D60021968881C2
:100280008111FACFDF91CF910895CF93DF93CDB74E
:10029000DEB761970FB6F894DEBF0FBECDBFDC01AD
:1002A000CB014AE0BE016F5F7F4F0E941D02CE016D
:1002B00001960E94380161960FB6F894DEBF0FBE1A
:1002C000CDBFDF91CF91089580E690E00E94B0010C
:1002D0000E94AB0086E00E941502682F70E080E06B
:1002E00090E00E944501F6CF442319F0413071F0AF
:1002F0000895FC01408121E030E002C0220F331F4D
:100300006A95E2F72095242320830895FC0140811B
:1003100021E030E002C0220F331F6A95E2F7242B60
:1003200020830895442319F0413071F00895FC01B1
:10033000408121E030E002C0220F331F6A95E2F7CE
:100340002095242320830895FC01408121E030E0A2
:1003500002C0220F331F6A95E2F7242B20830895F1
:10036000CF93DF93EC0188818823D9F0813089F520
:1003700041E064E087E390E00E94740141E065E0C1
:1003800087E390E00E94740141E067E087E390E03A
:100390000E94740140E066E087E390E00E947401EF
:1003A00018C040E064E087E390E00E94740140E000
:1003B00065E087E390E00E94740140E067E087E336
:1003C00090E00E94740141E066E087E390E00E94C3
:1003D00074011DB81EB82DB1988130E1939FC00102
:1003E0001124822B8DB92DB19A8130E2939FC001E7
:1003F0001124822B8DB92DB19D8130E8939FC001CE
:100400001124822B8DB99DB18B81892B8DB99DB122
:100410008C81892B8DB99EB18981892B8EB98DB143
:1004200080648DB9DF91CF9108958FB9779BFECF0E
:100430008EB180688EB98FB10895BB274A3031F4F0
:10044000992322F4BDE2909581959F4F0C94290247
:10045000BB27FB015527AA27880F991FAA1FA4179E
:1004600010F0A41B83955051B9F7A05DAA3308F092
:10047000A95DA193009779F7B111B1931192CB01C6
:100480000C944202DC01FC01672F71917723E1F7A4
:10049000329704C07C916D9370836291AE17BF0751
:0804A000C8F30895F894FFCFA2
:0604A8000100000001004C
:00000001FF
