:100000000C942A000C9447000C9447000C94470071
:100010000C9447000C9447000C9447000C94470044
:100020000C9447000C9447000C9447000C94470034
:100030000C9447000C9447000C9447000C94470024
:100040000C9447000C9447000C9447000C94470014
:100050000C94470011241FBECFE5D8E0DEBFCDBF12
:1000600010E0A0E6B0E0EEE8F8E002C005900D92E6
:10007000A436B107D9F720E0A4E6B0E001C01D9294
:10008000A436B207E1F70E9468010C9445040C9471
:100090000000CF93C82F40E061E088E390E00E9429
:1000A000C50140E062E088E390E00E94C5018FE96D
:1000B0009FE00197F1F700C0000041E063E088E3B2
:1000C00090E00E94C5018FE99FE00197F1F700C021
:1000D00000008BB38F708BBB8BB39C2F907F892BD1
:1000E0008BBB8FE99FE00197F1F700C0000040E073
:1000F00063E088E390E00E94C5018FE99FE00197EB
:10010000F1F700C0000041E063E088E390E00E9466
:10011000C5018FE99FE00197F1F700C000008BB3A4
:100120008F708BBB8BB3C295C07FC82BCBBB8FE9C5
:100130009FE00197F1F700C0000040E063E088E332
:1001400090E00E94C5018FE99FE00197F1F700C0A0
:100150000000CF9108952FEF89EF90E0215080406B
:100160009040E1F700C0000041E061E087E390E0EB
:100170000E94A70141E062E087E390E00E94A701AE
:1001800041E063E087E390E00E94A7018AB3806FBB
:100190008ABB82E00E94490088E20E9449008CE00C
:1001A0000E94490081E00E944900089581E00E9478
:1001B00049000895CF93C82F41E061E088E390E0C3
:1001C0000E94C50140E062E088E390E00E94C50122
:1001D0008FE99FE00197F1F700C0000041E063E084
:1001E00088E390E00E94C5018FE99FE00197F1F755
:1001F00000C000008BB38F708BBB8BB39C2F907FA4
:10020000892B8BBB8FE99FE00197F1F700C00000BD
:1002100040E063E088E390E00E94C5018FE99FE041
:100220000197F1F700C0000041E063E088E390E04F
:100230000E94C5018FE99FE00197F1F700C000001F
:100240008BB38F708BBB8BB3C295C07FC82BCBBBDE
:100250008FE99FE00197F1F700C0000040E063E004
:1002600088E390E00E94C5018FE99FE00197F1F7D4
:1002700000C00000CF910895CF93DF93EC0103C03D
:100280000E94DA00219688818111FACFDF91CF9107
:100290000895CF93DF93CDB7DEB761970FB6F8948B
:1002A000DEBF0FBECDBFDC01CB014AE0BE016F5FF8
:1002B0007F4F0E941004CE0101960E943C0161967E
:1002C0000FB6F894DEBF0FBECDBFDF91CF9108957A
:1002D000CF93DF9300D000D0CDB7DEB780E690E0BB
:1002E0000E94E3010E94AB00BE016F5F7F4F80E080
:1002F0000E942D0269817A8180E090E00E941503BE
:100300006B017C016B817C8180E090E00E94150391
:100310009B01AC01C701B6010E94740220E030E0ED
:1003200048EC52E40E94A3030E94E60270E080E0E1
:1003300090E00E9449012FEF83EC99E0215080402A
:100340009040E1F700C000000E94D600CDCF4423CA
:1003500019F0413071F00895FC01408121E030E056
:1003600002C0220F331F6A95E2F7209524232083D1
:100370000895FC01408121E030E002C0220F331FCC
:100380006A95E2F7242B20830895442319F0413025
:1003900071F00895FC01408121E030E002C0220F9D
:1003A000331F6A95E2F72095242320830895FC01EA
:1003B000408121E030E002C0220F331F6A95E2F74E
:1003C000242B20830895FC0191B3906491BB80811C
:1003D00081111FC01FBC1EBC8281882319F081308F
:1003E00029F007C08EB580648EBD03C08EB58F7BAB
:1003F0008EBD9EB58181892B8EBD1DBC1CBC17BCDA
:1004000016BC29B7938130E2939FC0011124822B3F
:1004100089BF089581110CC0662319F0613029F05D
:1004200008958EB580648EBD08958EB58F7B8EBD88
:1004300008951DBC1CBC089586B597B5089581111B
:1004400008C008B605FE07C088B7806288BF81E093
:10045000089580E0089580E00895EF92FF920F9351
:100460001F93CF93DF93811138C08B0188B78062CF
:1004700088BF0E94190260E080E00E940A0280E0CA
:100480000E941F028130D9F70E941C027C0161E0AA
:1004900080E00E940A0280E00E941F028130D9F7AA
:1004A0000E941C02EC0160E080E00E940A0280E0F1
:1004B0000E941F028130D9F70E941C02EC16FD0633
:1004C00060F4C817D90748F4CE19DF09F801D183C1
:1004D000C0838E199F0993838283DF91CF911F91EF
:1004E0000F91FF90EF9008950E9488020C94690389
:1004F0000E94620358F00E945B0340F029F45F3FC2
:1005000029F00C94520351110C949D030C94580340
:100510000E947A0368F39923B1F3552391F3951B55
:10052000550BBB27AA2762177307840738F09F5F14
:100530005F4F220F331F441FAA1FA9F335D00E2E81
:100540003AF0E0E832D091505040E695001CCAF7EE
:100550002BD0FE2F29D0660F771F881FBB1F2617B1
:1005600037074807AB07B0E809F0BB0B802DBF0188
:10057000FF2793585F4F3AF09E3F510578F00C9457
:1005800052030C949D035F3FE4F3983ED4F38695A9
:1005900077956795B795F7959F5FC9F7880F911D78
:1005A0009695879597F90895E1E0660F771F881F64
:1005B000BB1F621773078407BA0720F0621B730B17
:1005C000840BBA0BEE1F88F7E09508950E94820312
:1005D00088F09F5798F0B92F9927B751B0F0E1F004
:1005E000660F771F881F991F1AF0BA95C9F714C0B4
:1005F000B13091F00E949C03B1E008950C949C03EB
:10060000672F782F8827B85F39F0B93FCCF38695EC
:1006100077956795B395D9F73EF490958095709549
:1006200061957F4F8F4F9F4F0895E89409C097FBC6
:100630003EF490958095709561957F4F8F4F9F4FB9
:100640009923A9F0F92F96E9BB279395F6958795FD
:1006500077956795B795F111F8CFFAF4BB0F11F4C0
:1006600060FF1BC06F5F7F4F8F4F9F4F16C0882367
:1006700011F096E911C0772321F09EE8872F762F9D
:1006800005C0662371F096E8862F70E060E02AF0DE
:100690009A95660F771F881FDAF7880F96958795CA
:1006A00097F9089597F99F6780E870E060E00895F2
:1006B0009FEF80EC089500240A941616170618067A
:1006C0000906089500240A94121613061406050656
:1006D0000895092E0394000C11F4882352F0BB0FE7
:1006E00040F4BF2B11F460FF04C06F5F7F4F8F4F4A
:1006F0009F4F089557FD9058440F551F59F05F3F85
:1007000071F04795880F97FB991F61F09F3F79F033
:1007100087950895121613061406551FF2CF4695B5
:10072000F1DF08C0161617061806991FF1CF869537
:100730007105610508940895E894BB27662777271B
:10074000CB0197F908950E94B6030C9469030E94A7
:100750005B0338F00E94620320F0952311F00C94A3
:1007600052030C94580311240C949D030E947A03A5
:1007700070F3959FC1F3950F50E0551F629FF001F4
:10078000729FBB27F00DB11D639FAA27F00DB11D0D
:10079000AA1F649F6627B00DA11D661F829F222796
:1007A000B00DA11D621F739FB00DA11D621F839F1D
:1007B000A00D611D221F749F3327A00D611D231FF3
:1007C000849F600D211D822F762F6A2F11249F5741
:1007D00050409AF0F1F088234AF0EE0FFF1FBB1F44
:1007E000661F771F881F91505040A9F79E3F510503
:1007F00080F00C9452030C949D035F3FE4F3983E09
:10080000D4F3869577956795B795F795E7959F5FAC
:10081000C1F7FE2B880F911D9695879597F908953E
:10082000BB274A3031F4992322F4BDE2909581959B
:100830009F4F0C941C04BB27FB015527AA27880F48
:10084000991FAA1FA41710F0A41B83955051B9F744
:10085000A05DAA3308F0A95DA193009779F7B111C3
:10086000B1931192CB010C943504DC01FC01672F8C
:1008700071917723E1F7329704C07C916D93708377
:0E0880006291AE17BF07C8F30895F894FFCF3A
:04088E000004000062
:00000001FF
