S00B00004144432E7372656351
S11300000C942A000C943F000C943F000C943F0085
S11300100C943F000C943F000C943F000C943F0060
S11300200C943F000C943F000C943F000C943F0050
S11300300C943F000C943F000C943F000C943F0040
S11300400C943F000C943F000C943F000C943F0030
S11300500C943F0011241FBECFE5D8E0DEBFCDBF16
S113006010E0A0E6B0E0ECEBF8E002C005900D92E1
S1130070A836B107D9F70E94B7010C945C040C941C
S11300800000CF93C82F40E061E088E390E00E9435
S11300906D0240E062E088E390E00E946D028FE927
S11300A09FE00197F1F700C0000041E063E088E3BE
S11300B090E00E946D028FE99FE00197F1F700C084
S11300C000008BB38F708BBB8BB39C2F907F892BDD
S11300D08BBB8FE99FE00197F1F700C0000040E07F
S11300E063E088E390E00E946D028FE99FE001974E
S11300F0F1F700C0000041E063E088E390E00E9473
S11301006D028FE99FE00197F1F700C000008BB307
S11301108F708BBB8BB3C295C07FC82BCBBB8FE9D1
S11301209FE00197F1F700C0000040E063E088E33E
S113013090E00E946D028FE99FE00197F1F700C003
S11301400000CF9108952FEF89EF90E02150804077
S11301509040E1F700C0000041E061E087E390E0F7
S11301600E944F0241E062E087E390E00E944F0268
S113017041E063E087E390E00E944F028AB3806F1E
S11301808ABB82E00E94410088E20E9441008CE028
S11301900E94410081E00E944100089581E00E9494
S11301A041000895CF93C82F41E061E088E390E0D7
S11301B00E946D0240E062E088E390E00E946D02DC
S11301C08FE99FE00197F1F700C0000041E063E090
S11301D088E390E00E946D028FE99FE00197F1F7B8
S11301E000C000008BB38F708BBB8BB39C2F907FB0
S11301F0892B8BBB8FE99FE00197F1F700C00000CA
S113020040E063E088E390E00E946D028FE99FE0A4
S11302100197F1F700C0000041E063E088E390E05B
S11302200E946D028FE99FE00197F1F700C0000082
S11302308BB38F708BBB8BB3C295C07FC82BCBBBEA
S11302408FE99FE00197F1F700C0000040E063E010
S113025088E390E00E946D028FE99FE00197F1F737
S113026000C00000CF910895CF93DF93EC0103C049
S11302700E94D200219688818111FACFDF91CF911B
S11302800895CF93DF93CDB7DEB761970FB6F89497
S1130290DEBF0FBECDBFDC01CB014AE0BE016F5F04
S11302A07F4F0E942704CE0101960E94340161967B
S11302B00FB6F894DEBF0FBECDBFDF91CF91089586
S11302C080E690E00E94D5010895CF92DF92EF92EC
S11302D0FF920F931F93CF93DF9300D0CDB7DEB778
S11302E01A82198280E00E940D0210916400AE010E
S11302F04F5F5F4F612F80E00E941302112329F0AA
S1130300113031F000E010E005C000E011E002C05F
S113031000E014E069817A8180E090E00E942C037F
S113032020E030E040EA50E40E94BA036B017C0113
S1130330B80180E090E00E942C039B01AC01C7014E
S1130340B6010E948B0220E030E048EC52E40E94A7
S1130350BA030E94FD02862F0F900F90DF91CF9178
S11303601F910F91FF90EF90DF90CF9008950E941E
S113037060010E94A3000E946501682F70E080E084
S113038090E00E9441012FEF89E698E121508040DE
S11303909040E1F700C000000E94CE00ECCF3499F9
S11303A002C081E0089582E00895FC0117B816B8F0
S11303B080B78F7180BF808181112EC08281882394
S11303C019F0823039F00DC086B1806286B980B7E9
S11303D080BF07C086B1806286B990B78581892BBA
S11303E080BF97B18181892B87B98481882319F0D3
S11303F0813029F008C087B1806287B904C097B101
S11304008681892B87B996B123818781822B892B99
S113041086B986B1806886B90895811103C086B112
S1130420806486B908950F931F93CF93C62F8A01D2
S113043097B1907E97B997B1892B87B90E94CF0164
S11304408130E1F3CC2319F0C13039F021C085B1FA
S113045090E0F801918380831BC08091660088231B
S113046019F0803239F014C084B195B1F801918348
S113047080830EC084B195B10024880F991F001C9D
S1130480880F991F001C892F902DF8019183808378
S113049086B1806186B9CF911F910F91089544234D
S11304A019F0413071F00895FC01408121E030E001
S11304B002C0220F331F6A95E2F72095242320837C
S11304C00895FC01408121E030E002C0220F331F77
S11304D06A95E2F7242B20830895442319F04130D0
S11304E071F00895FC01408121E030E002C0220F48
S11304F0331F6A95E2F72095242320830895FC0195
S1130500408121E030E002C0220F331F6A95E2F7F8
S1130510242B208308950E949F020C9480030E9440
S1130520790358F00E94720340F029F45F3F29F0E8
S11305300C94690351110C94B4030C946F030E943E
S1130540910368F39923B1F3552391F3951B550B4C
S1130550BB27AA2762177307840738F09F5F5F4F92
S1130560220F331F441FAA1FA9F335D00E2E3AF0D1
S1130570E0E832D091505040E695001CCAF72BD0E9
S1130580FE2F29D0660F771F881FBB1F261737073A
S11305904807AB07B0E809F0BB0B802DBF01FF276C
S11305A093585F4F3AF09E3F510578F00C946903DD
S11305B00C94B4035F3FE4F3983ED4F386957795A7
S11305C06795B795F7959F5FC9F7880F911D969525
S11305D0879597F90895E1E0660F771F881FBB1F81
S11305E0621773078407BA0720F0621B730B840B2E
S11305F0BA0BEE1F88F7E09508950E94990388F0DE
S11306009F5798F0B92F9927B751B0F0E1F0660FD2
S1130610771F881F991F1AF0BA95C9F714C0B13013
S113062091F00E94B303B1E008950C94B303672FD3
S1130630782F8827B85F39F0B93FCCF38695779542
S11306406795B395D9F73EF490958095709561952B
S11306507F4F8F4F9F4F0895E89409C097FB3EF456
S113066090958095709561957F4F8F4F9F4F9923FB
S1130670A9F0F92F96E9BB279395F6958795779579
S11306806795B795F111F8CFFAF4BB0F11F460FF39
S11306901BC06F5F7F4F8F4F9F4F16C0882311F091
S11306A096E911C0772321F09EE8872F762F05C0A5
S11306B0662371F096E8862F70E060E02AF09A9540
S11306C0660F771F881FDAF7880F9695879597F935
S11306D0089597F99F6780E870E060E008959FEFC0
S11306E080EC089500240A941616170618060906C5
S11306F0089500240A941216130614060506089594
S1130700092E0394000C11F4882352F0BB0F40F41B
S1130710BF2B11F460FF04C06F5F7F4F8F4F9F4F5B
S1130720089557FD9058440F551F59F05F3F71F0DD
S11307304795880F97FB991F61F09F3F79F0879544
S11307400895121613061406551FF2CF4695F1DFCD
S113075008C0161617061806991FF1CF869571055D
S1130760610508940895E894BB2766277727CB0191
S113077097F908950E94CD030C9480030E9472039C
S113078038F00E94790320F0952311F00C9469034A
S11307900C946F0311240C94B4030E94910370F31E
S11307A0959FC1F3950F50E0551F629FF001729F12
S11307B0BB27F00DB11D639FAA27F00DB11DAA1F21
S11307C0649F6627B00DA11D661F829F2227B00D6E
S11307D0A11D621F739FB00DA11D621F839FA00DF9
S11307E0611D221F749F3327A00D611D231F849F49
S11307F0600D211D822F762F6A2F11249F575040A0
S11308009AF0F1F088234AF0EE0FFF1FBB1F661F1A
S1130810771F881F91505040A9F79E3F510580F0E3
S11308200C9469030C94B4035F3FE4F3983ED4F34F
S1130830869577956795B795F795E7959F5FC1F787
S1130840FE2B880F911D9695879597F90895BB27E0
S11308504A3031F4992322F4BDE2909581959F4F5B
S11308600C943304BB27FB015527AA27880F991F33
S1130870AA1FA41710F0A41B83955051B9F7A05DCB
S1130880AA3308F0A95DA193009779F7B111B19348
S11308901192CB010C944C04DC01FC01672F719183
S11308A07723E1F7329704C07C916D937083629152
S10F08B0AE17BF07C8F30895F894FFCFFB
S10B08BC0040010701002000C7
S9030000FC
