:100000000C942A000C9447000C9447000C94470071
:100010000C9447000C9447000C9447000C94470044
:100020000C9447000C9447000C9447000C94470034
:100030000C9447000C9447000C9447000C94470024
:100040000C9447000C9447000C9447000C94470014
:100050000C94470011241FBECFE5D8E0DEBFCDBF12
:1000600010E0A0E6B0E0E0E2F2E002C005900D9200
:10007000A436B107D9F720E0A4E6B0E001C01D9294
:10008000A536B207E1F70E947C000C940E010C9497
:100090000000442319F0413071F00895FC014081C3
:1000A00021E030E002C0220F331F6A95E2F720956D
:1000B000242320830895FC01408121E030E002C028
:1000C000220F331F6A95E2F7242B20830895FC0149
:1000D000408181E090E09C01062E02C0220F331F78
:1000E0000A94E2F7842F90E08223932302C096952E
:1000F00087956A95E2F708950E949D0066E081E386
:1001000090E00E94E60062E081E390E00E94E60059
:1001100002C00E94B60066E080E390E00E94EA0020
:10012000813019F4F6CF0E94CD0062E080E390E0C8
:100130000E94EA008130B9F3EECF41E064E08AE347
:1001400090E00E94490041E065E08AE390E00E946F
:10015000490041E066E08AE390E00E94490041E006
:1001600067E08AE390E00E944900089580E012C0B1
:100170009BB39F709BBB2BB3E82FF0E0E05AFF4F7F
:100180009081922B9BBBEFE1FEE43197F1F700C029
:1001900000008F5F843060F3089583E014C09BB348
:1001A0009F709BBB2BB3E82F082E000CFF0BE05A6F
:1001B000FF4F9081922B9BBBEFE1FEE43197F1F76B
:1001C00000C000008150882354F7089540E00E9449
:1001D000490008951F93CF93DF93EC01162F0E94DF
:1001E000670090916400891791F02FEF89EF90E0FC
:1001F000215080409040E1F700C00000612FCE0107
:100200000E94670080936400813019F403C080E08D
:1002100001C080E0DF91CF911F910895F894FFCF46
:0402200010204080EA
:00000001FF
