:100000000C942A000C943F000C943F000C943F0089
:100010000C943F000C943F000C943F000C943F0064
:100020000C943F000C943F000C943F000C943F0054
:100030000C943F000C943F000C943F000C943F0044
:100040000C943F000C943F000C943F000C943F0034
:100050000C943F0011241FBECFE5D8E0DEBFCDBF1A
:1000600010E0A0E6B0E0E4E6F2E002C005900D92F8
:10007000AA36B107D9F70E947D000C9430010C9488
:100080000000442319F0413071F00895FC014081D3
:1000900021E030E002C0220F331F6A95E2F720957D
:1000A000242320830895FC01408121E030E002C038
:1000B000220F331F6A95E2F7242B208308954423EF
:1000C00019F0413071F00895FC01408121E030E0E9
:1000D00002C0220F331F6A95E2F720952423208364
:1000E0000895FC01408121E030E002C0220F331F5F
:1000F0006A95E2F7242B208308950E9484008CE403
:1001000090E00E94C900FBCF41E061E087E390E00E
:100110000E94410041E062E087E390E00E944100DC
:1001200080EF8ABB0895CF93C82F613019F06230F9
:1001300071F01AC041E061E088E390E00E945F0046
:1001400040E062E088E390E00E945F0019C041E077
:1001500062E088E390E00E945F0040E061E088E3B5
:1001600090E00E945F000CC040E061E088E390E016
:100170000E945F0040E062E088E390E00E945F0040
:100180008BB38F708BBB8BB3C07FC82BCBBBCF9196
:100190000895CF93DF93EC019C0136952795369512
:1001A0002795ABE7B4E10E9421019C013695279584
:1001B00044E6429FC001439F900D11249E01281BDD
:1001C000390BADECBCEC0E94210196958795969574
:1001D000879596958795FC01E05AFF4F62E08081F4
:1001E0000E9493008FE39CE90197F1F700C00000A3
:1001F0009E01ADECBCEC0E942101969587959695E9
:100200008795969587959C01220F331F880F991F1C
:10021000880F991F880F991F820F931F9E01281B1B
:10022000390BF901E05AFF4F61E080810E94930091
:100230008FE39CE90197F1F700C00000DF91CF91B7
:100240000895A29FB001B39FC001A39F700D811DAF
:100250001124911DB29F700D811D1124911D0895CF
:04026000F894FFCF40
:0A02640000102030405060708090C0
:00000001FF
