S00C0000556172742E737265637C
S11300000C942A000C9447000C9447000C9447006D
S11300100C9447000C9447000C9447000C94470040
S11300200C9447000C9447000C9447000C94470030
S11300300C9447000C9447000C9447000C94470020
S11300400C9447000C9447000C9447000C94470010
S11300500C94470011241FBECFE5D8E0DEBFCDBF0E
S113006010E0A0E6B0E0E6EAF6E002C005900D92EA
S1130070A237B107D9F720E0A2E7B0E001C01D9292
S1130080A237B207E1F70E9449000C9451030C9483
S1130090000080E690E00E945B008DE690E00E9404
S11300A03B012FEF89E698E1215080409040E1F731
S11300B000C00000F2CFCF93DF93EC011BB81AB855
S11300C010BC80B5806880BD20B5998130E4939FD1
S11300D0C0011124822B80BD90B58A85892B80BDF7
S11300E08885873019F48AB184608AB920B59885E7
S11300F0892F90E0880F991F822B80BD89818111FF
S113010004C090B58C85892B80BD2AB19B81892F31
S113011090E0880F991F880F991F880F991F822BD1
S11301208AB99AB18B85892B8AB92BB19A81892F87
S113013090E0880F991F822B8BB980B58F7780BD93
S11301408A81882319F08130E1F175C06C817D8149
S11301508E819F810E94560220E030E040E851E405
S11301600E94E4029B01AC0160E074E284E79BE43A
S11301700E94B50120E030E040E85FE30E944801BE
S11301800E94270270BD6C817D818E819F810E94B7
S1130190560220E030E040E851E40E94E4029B0172
S11301A0AC0160E074E284E79BE40E94B50120E0C6
S11301B030E040E85FE30E9448010E94270269B9E9
S11301C03AC06C817D818E819F810E94560220E01D
S11301D030E040E051E40E94E4029B01AC0160E0A5
S11301E074E284E79BE40E94B50120E030E040E83B
S11301F05FE30E9448010E94270270BD6C817D81EB
S11302008E819F810E94560220E030E040E051E45C
S11302100E94E4029B01AC0160E074E284E79BE489
S11302200E94B50120E030E040E85FE30E9448010D
S11302300E94270269B9DF91CF910895813019F0A6
S1130240823029F008C05D9908C080E008955F9964
S113025006C080E0089580E0089581E0089582E07A
S11302600895CF93C82F81E00E941E018130D9F7F1
S1130270CCB9CF910895CF93DF93EC0103C00E94D2
S11302803101219688818111FACFDF91CF910895B0
S11302905058BB27AA270E9460010C94AA020E940E
S11302A09C0238F00E94A30220F039F49F3F19F415
S11302B026F40C9499020EF4E095E7FB0C94930257
S11302C0E92F0E94BB0258F3BA1762077307840729
S11302D0950720F079F4A6F50C94DD020EF4E09570
S11302E00B2EBA2FA02D0B01B90190010C01CA01EC
S11302F0A0011124FF27591B99F0593F50F4503E97
S113030068F11A16F040A22F232F342F4427585F88
S1130310F3CF469537952795A795F0405395C9F7A0
S11303207EF41F16BA0B620B730B840BBAF0915058
S1130330A1F0FF0FBB1F661F771F881FC2F70EC0F7
S1130340BA0F621F731F841F48F4879577956795CA
S1130350B795F7959E3F08F0B0CF9395880F08F0B6
S11303609927EE0F9795879508950E94C9010C94DB
S1130370AA020E94A30258F00E949C0240F029F4B1
S11303805F3F29F00C94930251110C94DE020C94FB
S113039099020E94BB0268F39923B1F3552391F3A8
S11303A0951B550BBB27AA2762177307840738F0E0
S11303B09F5F5F4F220F331F441FAA1FA9F335D03D
S11303C00E2E3AF0E0E832D091505040E695001CF1
S11303D0CAF72BD0FE2F29D0660F771F881FBB1FAB
S11303E0261737074807AB07B0E809F0BB0B802D89
S11303F0BF01FF2793585F4F3AF09E3F510578F0B5
S11304000C9493020C94DE025F3FE4F3983ED4F321
S1130410869577956795B795F7959F5FC9F7880F88
S1130420911D9695879597F90895E1E0660F771FDA
S1130430881FBB1F621773078407BA0720F0621B6B
S1130440730B840BBA0BEE1F88F7E09508950E9496
S1130450C30288F09F5798F0B92F9927B751B0F08D
S1130460E1F0660F771F881F991F1AF0BA95C9F734
S113047014C0B13091F00E94DD02B1E008950C94F3
S1130480DD02672F782F8827B85F39F0B93FCCF3A6
S1130490869577956795B395D9F73EF490958095B1
S11304A0709561957F4F8F4F9F4F0895E89409C0D1
S11304B097FB3EF490958095709561957F4F8F4F93
S11304C09F4F9923A9F0F92F96E9BB279395F695A9
S11304D0879577956795B795F111F8CFFAF4BB0F27
S11304E011F460FF1BC06F5F7F4F8F4F9F4F16C08B
S11304F0882311F096E911C0772321F09EE8872F15
S1130500762F05C0662371F096E8862F70E060E0D0
S11305102AF09A95660F771F881FDAF7880F969549
S1130520879597F9089597F99F6780E870E060E0F0
S113053008959FEF80EC089500240A941616170678
S113054018060906089500240A94121613061406C0
S113055005060895092E0394000C11F4882352F023
S1130560BB0F40F4BF2B11F460FF04C06F5F7F4FDB
S11305708F4F9F4F089557FD9058440F551F59F0C2
S11305805F3F71F04795880F97FB991F61F09F3F7C
S113059079F087950895121613061406551FF2CFA5
S11305A04695F1DF08C0161617061806991FF1CFF5
S11305B086957105610508940895E894BB2766271C
S11305C07727CB0197F908950E94F7020C94AA02A9
S11305D00E949C0238F00E94A30220F0952311F09F
S11305E00C9493020C94990211240C94DE020E9440
S11305F0BB0270F3959FC1F3950F50E0551F629FA6
S1130600F001729FBB27F00DB11D639FAA27F00D67
S1130610B11DAA1F649F6627B00DA11D661F829F8E
S11306202227B00DA11D621F739FB00DA11D621F73
S1130630839FA00D611D221F749F3327A00D611D90
S1130640231F849F600D211D822F762F6A2F112472
S11306509F5750409AF0F1F088234AF0EE0FFF1FA5
S1130660BB1F661F771F881F91505040A9F79E3FFC
S1130670510580F00C9493020C94DE025F3FE4F386
S1130680983ED4F3869577956795B795F795E79552
S11306909F5FC1F7FE2B880F911D9695879597F95B
S10906A00895F894FFCF59
S11306A600000001802500000300000001486921C4
S10506B600003E
S9030000FC
