S00C0000556172742E737265637C
S11300000C942A000C9447000C9447000C9447006D
S11300100C9447000C9447000C9447000C94470040
S11300200C9447000C9447000C9447000C94470030
S11300300C9447000C9447000C9447000C94470020
S11300400C9447000C9447000C9447000C94470010
S11300500C94470011241FBECFE5D8E0DEBFCDBF0E
S113006010E0A0E6B0E0ECEFF8E002C005900D92DD
S1130070AE36B107D9F720E0AEE6B0E001C01D927C
S1130080AE36B207E1F70E9438010C947C040C945C
S11300900000CF93C82F40E061E088E390E00E9425
S11300A0720140E062E088E390E00E9472018FE90F
S11300B09FE00197F1F700C0000041E063E088E3AE
S11300C090E00E9472018FE99FE00197F1F700C070
S11300D000008BB38F708BBB8BB39C2F907F892BCD
S11300E08BBB8FE99FE00197F1F700C0000040E06F
S11300F063E088E390E00E9472018FE99FE001973A
S1130100F1F700C0000041E063E088E390E00E9462
S113011072018FE99FE00197F1F700C000008BB3F3
S11301208F708BBB8BB3C295C07FC82BCBBB8FE9C1
S11301309FE00197F1F700C0000040E063E088E32E
S113014090E00E9472018FE99FE00197F1F700C0EF
S11301500000CF9108952FEF89EF90E02150804067
S11301609040E1F700C0000041E061E087E390E0E7
S11301700E94540141E062E087E390E00E94540150
S113018041E063E087E390E00E9454018AB3806F0A
S11301908ABB82E00E94490088E20E9449008CE008
S11301A00E94490081E00E9449000895CF93C82F1E
S11301B041E061E088E390E00E94720140E062E087
S11301C088E390E00E9472018FE99FE00197F1F7C4
S11301D000C0000041E063E088E390E00E94720107
S11301E08FE99FE00197F1F700C000008BB38F7097
S11301F08BBB8BB39C2F907F892B8BBB8FE99FE0AC
S11302000197F1F700C0000040E063E088E390E06C
S11302100E9472018FE99FE00197F1F700C000008E
S113022041E063E088E390E00E9472018FE99FE07F
S11302300197F1F700C000008BB38F708BBB8BB3B9
S1130240C295C07FC82BCBBB8FE99FE00197F1F724
S113025000C0000040E063E088E390E00E94720187
S11302608FE99FE00197F1F700C00000CF91089556
S1130270CF93DF931F92CDB7DEB70E94AB0080E629
S113028090E00E949001CE0101960E94660289814D
S11302900E94D6002FEF83ED90E3215080409040E0
S11302A0E1F700C00000EFCF442319F0413071F0B2
S11302B00895FC01408121E030E002C0220F331F89
S11302C06A95E2F72095242320830895FC01408158
S11302D021E030E002C0220F331F6A95E2F7242B9D
S11302E020830895442319F0413071F00895FC01EE
S11302F0408121E030E002C0220F331F6A95E2F70B
S11303002095242320830895FC01408121E030E0DE
S113031002C0220F331F6A95E2F7242B208308952D
S1130320CF93DF93EC011BB81AB810BC80B580687A
S113033080BD20B5998130E4939FC0011124822BA4
S113034080BD90B58A85892B80BD8885873019F456
S11303508AB184608AB920B59885892F90E0880F86
S1130360991F822B80BD8981811104C090B58C8531
S1130370892B80BD2AB19B81892F90E0880F991F1A
S1130380880F991F880F991F822B8AB99AB18B8580
S1130390892B8AB92BB19A81892F90E0880F991FF4
S11303A0822B8BB980B58F7780BD8A81882319F021
S11303B08130E1F175C06C817D818E819F810E94C5
S11303C0810320E030E040E851E40E940F049B01E7
S11303D0AC0160E074E284E79BE40E94E00220E068
S11303E030E040E85FE30E9473020E94520370BD54
S11303F06C817D818E819F810E94810320E030E0A9
S113040040E851E40E940F049B01AC0160E074E2F7
S113041084E79BE40E94E00220E030E040E85FE3F0
S11304200E9473020E94520369B93AC06C817D81B3
S11304308E819F810E94810320E030E040E051E4FE
S11304400E940F049B01AC0160E074E284E79BE42A
S11304500E94E00220E030E040E85FE30E94730283
S11304600E94520370BD6C817D818E819F810E94A8
S1130470810320E030E040E051E40E940F049B013E
S1130480AC0160E074E284E79BE40E94E00220E0B7
S113049030E040E85FE30E9473020E94520369B9AE
S11304A0DF91CF910895813019F0823029F008C08E
S11304B05D9908C080E008955F9906C080E00895C2
S11304C080E0089581E0089582E00895CF93DF935A
S11304D0EC0182E00E9453028230D9F38CB188830C
S11304E0DF91CF9108955058BB27AA270E948B0211
S11304F00C94D5030E94C70338F00E94CE0320F069
S113050039F49F3F19F426F40C94C4030EF4E095D7
S1130510E7FB0C94BE03E92F0E94E60358F3BA17D5
S1130520620773078407950720F079F4A6F50C9405
S113053008040EF4E0950B2EBA2FA02D0B01B9017F
S113054090010C01CA01A0011124FF27591B99F045
S1130550593F50F4503E68F11A16F040A22F232F51
S1130560342F4427585FF3CF469537952795A795A1
S1130570F0405395C9F77EF41F16BA0B620B730B48
S1130580840BBAF09150A1F0FF0FBB1F661F771FB9
S1130590881FC2F70EC0BA0F621F731F841F48F46E
S11305A0879577956795B795F7959E3F08F0B0CFF7
S11305B09395880F08F09927EE0F979587950895DE
S11305C00E94F4020C94D5030E94CE0358F00E94BA
S11305D0C70340F029F45F3F29F00C94BE03511186
S11305E00C9409040C94C4030E94E60368F3992351
S11305F0B1F3552391F3951B550BBB27AA2762171B
S11306007307840738F09F5F5F4F220F331F441F27
S1130610AA1FA9F335D00E2E3AF0E0E832D091505B
S11306205040E695001CCAF72BD0FE2F29D0660F48
S1130630771F881FBB1F261737074807AB07B0E88B
S113064009F0BB0B802DBF01FF2793585F4F3AF091
S11306509E3F510578F00C94BE030C9409045F3F4F
S1130660E4F3983ED4F3869577956795B795F79517
S11306709F5FC9F7880F911D9695879597F90895FF
S1130680E1E0660F771F881FBB1F6217730784079B
S1130690BA0720F0621B730B840BBA0BEE1F88F7AA
S11306A0E09508950E94EE0388F09F5798F0B92FC3
S11306B09927B751B0F0E1F0660F771F881F991F93
S11306C01AF0BA95C9F714C0B13091F00E94080429
S11306D0B1E008950C940804672F782F8827B85F39
S11306E039F0B93FCCF3869577956795B395D9F7EB
S11306F03EF490958095709561957F4F8F4F9F4FF5
S11307000895E89409C097FB3EF490958095709500
S113071061957F4F8F4F9F4F9923A9F0F92F96E949
S1130720BB279395F695879577956795B795F111BE
S1130730F8CFFAF4BB0F11F460FF1BC06F5F7F4F5B
S11307408F4F9F4F16C0882311F096E911C077236D
S113075021F09EE8872F762F05C0662371F096E876
S1130760862F70E060E02AF09A95660F771F881F45
S1130770DAF7880F9695879597F9089597F99F6703
S113078080E870E060E008959FEF80EC0895002415
S11307900A941616170618060906089500240A94E2
S11307A012161306140605060895092E0394000C68
S11307B011F4882352F0BB0F40F4BF2B11F460FFF7
S11307C004C06F5F7F4F8F4F9F4F089557FD905820
S11307D0440F551F59F05F3F71F04795880F97FB01
S11307E0991F61F09F3F79F08795089512161306BB
S11307F01406551FF2CF4695F1DF08C016161706EA
S11308001806991FF1CF869571056105089408951E
S1130810E894BB2766277727CB0197F908950E94B0
S113082022040C94D5030E94C70338F00E94CE031F
S113083020F0952311F00C94BE030C94C4031124EE
S11308400C9409040E94E60370F3959FC1F3950F7D
S113085050E0551F629FF001729FBB27F00DB11D40
S1130860639FAA27F00DB11DAA1F649F6627B00DD0
S1130870A11D661F829F2227B00DA11D621F739FB9
S1130880B00DA11D621F839FA00D611D221F749FC7
S11308903327A00D611D231F849F600D211D822F0E
S11308A0762F6A2F11249F5750409AF0F1F0882335
S11308B04AF0EE0FFF1FBB1F661F771F881F915062
S11308C05040A9F79E3F510580F00C94BE030C9450
S11308D009045F3FE4F3983ED4F3869577956795D2
S11308E0B795F795E7959F5FC1F7FE2B880F911D8C
S10F08F09695879597F90895F894FFCF2A
S11108FC000000018025000003000000010040
S9030000FC
