:100000000C942A000C9447000C9447000C94470071
:100010000C9447000C9447000C9447000C94470044
:100020000C9447000C9447000C9447000C94470034
:100030000C9447000C9447000C9447000C94470024
:100040000C9447000C9447000C9447000C94470014
:100050000C94470011241FBECFE5D8E0DEBFCDBF12
:1000600010E0A0E6B0E0EEEEFAE002C005900D92DE
:10007000A237B107D9F720E0A2E7B0E001C01D9296
:10008000A237B207E1F70E94EA010C9475050C94BF
:1000900000008CE690E00E945F020895CF93DF930A
:1000A000C82FD62F0E941D030E9434038830C9F444
:1000B00082EA0E9426030E9434038831A1F48C2F27
:1000C0000E9426030E943403883279F48D2F0E9407
:1000D00026030E943403883251F40E94230381E0F6
:1000E00007C080E005C080E003C080E001C080E080
:1000F000DF91CF9108950F931F93CF93C82F8B015A
:100100000E941D030E943403883039F582EA0E9460
:1001100026030E943403883111F58C2F0E94260398
:100120000E9434038832E9F40E941D030E943403C4
:100130008031C9F483EA0E9426030E94340380348C
:10014000A1F40E942D03F80180830E9434038835B6
:1001500071F40E94230381E00BC080E009C080E0BD
:1001600007C080E005C080E003C080E001C080E0FF
:10017000CF911F910F910895CF93C82F40E061E078
:1001800088E390E00E94410240E062E088E390E072
:100190000E9441028FE99FE00197F1F700C0000043
:1001A00041E063E088E390E00E9441028FE99FE034
:1001B0000197F1F700C000008BB38F708BBB8BB33E
:1001C0009C2F907F892B8BBB8FE99FE00197F1F7E4
:1001D00000C0000040E063E088E390E00E9441023C
:1001E0008FE99FE00197F1F700C0000041E063E074
:1001F00088E390E00E9441028FE99FE00197F1F7C8
:1002000000C000008BB38F708BBB8BB3C295C07FD7
:10021000C82BCBBB8FE99FE00197F1F700C000002E
:1002200040E063E088E390E00E9441028FE99FE0B4
:100230000197F1F700C00000CF9108952FEF89EFEB
:1002400090E0215080409040E1F700C0000041E084
:1002500061E087E390E00E94230241E062E087E3EF
:1002600090E00E94230241E063E087E390E00E9477
:1002700023028AB3806F8ABB82E00E94BC0088E2BE
:100280000E94BC008CE00E94BC0081E00E94BC0087
:100290000895813039F058F0823031F0833031F0F8
:1002A00060E005C0606403C0606101C06065862FC6
:1002B00080680E94BC000895CF93C82F41E061E0A0
:1002C00088E390E00E94410240E062E088E390E031
:1002D0000E9441028FE99FE00197F1F700C0000002
:1002E00041E063E088E390E00E9441028FE99FE0F3
:1002F0000197F1F700C000008BB38F708BBB8BB3FD
:100300009C2F907F892B8BBB8FE99FE00197F1F7A2
:1003100000C0000040E063E088E390E00E944102FA
:100320008FE99FE00197F1F700C0000041E063E032
:1003300088E390E00E9441028FE99FE00197F1F786
:1003400000C000008BB38F708BBB8BB3C295C07F96
:10035000C82BCBBB8FE99FE00197F1F700C00000ED
:1003600040E063E088E390E00E9441028FE99FE073
:100370000197F1F700C00000CF910895CF93DF936C
:10038000EC0103C00E945C01219688818111FACFA3
:10039000DF91CF910895CF93DF93CDB7DEB761970B
:1003A0000FB6F894DEBF0FBECDBFDC01CB014AE033
:1003B000BE016F5F7F4F0E944005CE0101960E94F3
:1003C000BE0161960FB6F894DEBF0FBECDBFDF91C0
:1003D000CF910895CF93DF931F92CDB7DEB70E94E0
:1003E00049000E941E01198265E080E00E944E00D3
:1003F0002FEF83ED90E3215080409040E1F700C063
:100400000000BE016F5F7F4F80E00E947B0060E0D4
:1004100080E00E94490180E690E00E94BE0165E014
:1004200081E00E944901698170E080E090E00E94D3
:10043000CB012FEF83ED90E3215080409040E1F716
:1004400000C00000D0CF442319F0413071F008956E
:10045000FC01408121E030E002C0220F331F6A9589
:10046000E2F72095242320830895FC01408121E0B8
:1004700030E002C0220F331F6A95E2F7242B20835D
:100480000895442319F0413071F00895FC01408132
:1004900021E030E002C0220F331F6A95E2F7209579
:1004A000242320830895FC01408121E030E002C034
:1004B000220F331F6A95E2F7242B20830895CF93F0
:1004C000DF93EC0116BE12B810B811B882E082B901
:1004D0008881813019F130F08230F1F1833009F4F4
:1004E00069C09DC06A817B818C819D810E94450489
:1004F0009B01AC010E9438039B01AC0160E074E2F7
:1005000084E79BE40E94A40320E030E040E051E453
:100510000E9437030E94160460B981C06A817B8102
:100520008C819D810E94450420E030E040E051E450
:100530000E94D3049B01AC0160E074E284E79BE479
:100540000E94A40320E030E040E050E40E94370322
:100550000E94160460B963C08A819B81AC81BD8111
:10056000880F991FAA1FBB1F880F991FAA1FBB1FA7
:10057000880F991FAA1FBB1F880F991FAA1FBB1F97
:10058000BC01CD01660F771F881F991F0E9445048B
:100590009B01AC0160E074E284E79BE40E94A40349
:1005A00020E030E040E05FE30E9437030E94160441
:1005B00060B935C08A819B81AC81BD81880F991F4C
:1005C000AA1FBB1F880F991FAA1FBB1F880F991F47
:1005D000AA1FBB1F880F991FAA1FBB1F880F991F37
:1005E000AA1FBB1F880F991FAA1FBB1FBC01CD01EB
:1005F000660F771F881F991F0E9445049B01AC015D
:1006000060E074E284E79BE40E94A40320E030E011
:1006100040E05EE30E9437030E94160460B991B186
:100620008881892B81B996B78981892B86BF86B746
:10063000846086BFDF91CF91089584EA86BF06B6B5
:1006400007FEFDCF089584E986BF089583B984E845
:1006500086BF06B607FEFDCF089584E886BF06B6BE
:1006600007FEFDCF83B1089581B1887F089550586A
:10067000BB27AA270E944F030C9499040E948B0465
:1006800038F00E94920420F039F49F3F19F426F4C8
:100690000C9488040EF4E095E7FB0C948204E92F97
:1006A0000E94AA0458F3BA176207730784079507D4
:1006B00020F079F4A6F50C94CC040EF4E0950B2E02
:1006C000BA2FA02D0B01B90190010C01CA01A001A4
:1006D0001124FF27591B99F0593F50F4503E68F1FF
:1006E0001A16F040A22F232F342F4427585FF3CF40
:1006F000469537952795A795F0405395C9F77EF411
:100700001F16BA0B620B730B840BBAF09150A1F059
:10071000FF0FBB1F661F771F881FC2F70EC0BA0FDF
:10072000621F731F841F48F4879577956795B79567
:10073000F7959E3F08F0B0CF9395880F08F0992762
:10074000EE0F9795879508950E94B8030C9499042D
:100750000E94920458F00E948B0440F029F45F3FFD
:1007600029F00C94820451110C94CD040C9488044B
:100770000E94AA0468F39923B1F3552391F3951BC2
:10078000550BBB27AA2762177307840738F09F5FB2
:100790005F4F220F331F441FAA1FA9F335D00E2E1F
:1007A0003AF0E0E832D091505040E695001CCAF78C
:1007B0002BD0FE2F29D0660F771F881FBB1F26174F
:1007C00037074807AB07B0E809F0BB0B802DBF0126
:1007D000FF2793585F4F3AF09E3F510578F00C94F5
:1007E00082040C94CD045F3FE4F3983ED4F38695E5
:1007F00077956795B795F7959F5FC9F7880F911D16
:100800009695879597F90895E1E0660F771F881F01
:10081000BB1F621773078407BA0720F0621B730BB4
:10082000840BBA0BEE1F88F7E09508950E94B2047E
:1008300088F09F5798F0B92F9927B751B0F0E1F0A1
:10084000660F771F881F991F1AF0BA95C9F714C051
:10085000B13091F00E94CC04B1E008950C94CC0426
:10086000672F782F8827B85F39F0B93FCCF386958A
:1008700077956795B395D9F73EF4909580957095E7
:1008800061957F4F8F4F9F4F0895E89409C097FB64
:100890003EF490958095709561957F4F8F4F9F4F57
:1008A0009923A9F0F92F96E9BB279395F69587959B
:1008B00077956795B795F111F8CFFAF4BB0F11F45E
:1008C00060FF1BC06F5F7F4F8F4F9F4F16C0882305
:1008D00011F096E911C0772321F09EE8872F762F3B
:1008E00005C0662371F096E8862F70E060E02AF07C
:1008F0009A95660F771F881FDAF7880F9695879568
:1009000097F9089597F99F6780E870E060E008958F
:100910009FEF80EC089500240A9416161706180617
:100920000906089500240A941216130614060506F3
:100930000895092E0394000C11F4882352F0BB0F84
:1009400040F4BF2B11F460FF04C06F5F7F4F8F4FE7
:100950009F4F089557FD9058440F551F59F05F3F22
:1009600071F04795880F97FB991F61F09F3F79F0D1
:1009700087950895121613061406551FF2CF469553
:10098000F1DF08C0161617061806991FF1CF8695D5
:100990007105610508940895E894BB2766277727B9
:1009A000CB0197F908950E94E6040C9499040E94E3
:1009B0008B0438F00E94920420F0952311F00C94DF
:1009C00082040C94880411240C94CD040E94AA047F
:1009D00070F3959FC1F3950F50E0551F629FF00192
:1009E000729FBB27F00DB11D639FAA27F00DB11DAB
:1009F000AA1F649F6627B00DA11D661F829F222734
:100A0000B00DA11D621F739FB00DA11D621F839FBA
:100A1000A00D611D221F749F3327A00D611D231F90
:100A2000849F600D211D822F762F6A2F11249F57DE
:100A300050409AF0F1F088234AF0EE0FFF1FBB1FE1
:100A4000661F771F881F91505040A9F79E3F5105A0
:100A500080F00C9482040C94CD045F3FE4F3983E44
:100A6000D4F3869577956795B795F795E7959F5F4A
:100A7000C1F7FE2B880F911D9695879597F90895DC
:100A8000BB274A3031F4992322F4BDE29095819539
:100A90009F4F0C944C05BB27FB015527AA27880FB5
:100AA000991FAA1FA41710F0A41B83955051B9F7E2
:100AB000A05DAA3308F0A95DA193009779F7B11161
:100AC000B1931192CB010C946505DC01FC01672FF9
:100AD00071917723E1F7329704C07C916D93708315
:0E0AE0006291AE17BF07C8F30895F894FFCFD8
:100AEE0046726F6D20454550524F4D000000A08656
:020AFE000100F5
:00000001FF
