:100000000C942A000C9447000C9447000C94470071
:100010000C9447000C9447000C9447000C94470044
:100020000C9447000C9447000C9447000C94470034
:100030000C9447000C9447000C9447000C94470024
:100040000C9447000C9447000C9447000C94470014
:100050000C94470011241FBECFE5D8E0DEBFCDBF12
:1000600010E0A0E6B0E0E2E8FAE002C005900D92F0
:10007000A237B107D9F720E0A2E7B0E001C01D9296
:10008000A237B207E1F70E949F010C943F050C9440
:1000900000008CE690E00E9410020895CF93DF9359
:1000A000EC010E94CE020E94FE02883091F483EAA5
:1000B0000E94E5020E94FE02803469F40E94F00270
:1000C00088830E94FE02883541F40E94DB0281E0B1
:1000D00005C080E003C080E001C080E0DF91CF91E7
:1000E0000895CF93C82F40E061E088E390E00E943C
:1000F000F20140E062E088E390E00E94F2018FE9C3
:100100009FE00197F1F700C0000041E063E088E361
:1001100090E00E94F2018FE99FE00197F1F700C0A3
:1001200000008BB38F708BBB8BB39C2F907F892B80
:100130008BBB8FE99FE00197F1F700C0000040E022
:1001400063E088E390E00E94F2018FE99FE001976D
:10015000F1F700C0000041E063E088E390E00E9416
:10016000F2018FE99FE00197F1F700C000008BB327
:100170008F708BBB8BB3C295C07FC82BCBBB8FE975
:100180009FE00197F1F700C0000040E063E088E3E2
:1001900090E00E94F2018FE99FE00197F1F700C023
:1001A0000000CF9108952FEF89EF90E0215080401B
:1001B0009040E1F700C0000041E061E087E390E09B
:1001C0000E94D40141E062E087E390E00E94D40104
:1001D00041E063E087E390E00E94D4018AB3806F3E
:1001E0008ABB82E00E94710088E20E9471008CE06C
:1001F0000E94710081E00E9471000895813039F001
:1002000058F0823031F0833031F060E005C0606436
:1002100003C0606101C06065862F80680E94710024
:100220000895CF93C82F41E061E088E390E00E94F9
:10023000F20140E062E088E390E00E94F2018FE981
:100240009FE00197F1F700C0000041E063E088E320
:1002500090E00E94F2018FE99FE00197F1F700C062
:1002600000008BB38F708BBB8BB39C2F907F892B3F
:100270008BBB8FE99FE00197F1F700C0000040E0E1
:1002800063E088E390E00E94F2018FE99FE001972C
:10029000F1F700C0000041E063E088E390E00E94D5
:1002A000F2018FE99FE00197F1F700C000008BB3E6
:1002B0008F708BBB8BB3C295C07FC82BCBBB8FE934
:1002C0009FE00197F1F700C0000040E063E088E3A1
:1002D00090E00E94F2018FE99FE00197F1F700C0E2
:1002E0000000CF910895CF93DF93EC0103C00E94EB
:1002F0001101219688818111FACFDF91CF91089564
:10030000CF93DF93CDB7DEB761970FB6F894DEBF1A
:100310000FBECDBFDC01CB014AE0BE016F5F7F4F56
:100320000E940A05CE0101960E94730161960FB6E4
:10033000F894DEBF0FBECDBFDF91CF910895CF936C
:10034000DF931F92CDB7DEB70E9449000E94D30011
:100350001982CE0101960E944E00182F60E080E0C5
:100360000E94FE0080E690E00E94730165E081E05B
:100370000E94FE00698170E080E090E00E948001B0
:1003800068E081E00E94FE00612F70E080E090E074
:100390000E9480012FEF83ED90E321508040904038
:1003A000E1F700C00000D4CF442319F0413071F0D0
:1003B0000895FC01408121E030E002C0220F331F8C
:1003C0006A95E2F72095242320830895FC0140815B
:1003D00021E030E002C0220F331F6A95E2F7242BA0
:1003E00020830895442319F0413071F00895FC01F1
:1003F000408121E030E002C0220F331F6A95E2F70E
:100400002095242320830895FC01408121E030E0E1
:1004100002C0220F331F6A95E2F7242B2083089530
:10042000CF93DF93EC0116BE12B810B811B882E07A
:1004300082B98881813019F130F08230F1F1833056
:1004400009F469C09DC06A817B818C819D810E9475
:100450000F049B01AC010E9402039B01AC0160E010
:1004600074E284E79BE40E946E0320E030E040E009
:1004700051E40E9401030E94E00360B981C06A81D7
:100480007B818C819D810E940F0420E030E040E060
:1004900051E40E949D049B01AC0160E074E284E79A
:1004A0009BE40E946E0320E030E040E050E40E94B4
:1004B00001030E94E00360B963C08A819B81AC8123
:1004C000BD81880F991FAA1FBB1F880F991FAA1FE4
:1004D000BB1F880F991FAA1FBB1F880F991FAA1F38
:1004E000BB1FBC01CD01660F771F881F991F0E949B
:1004F0000F049B01AC0160E074E284E79BE40E947E
:100500006E0320E030E040E05FE30E9401030E94C0
:10051000E00360B935C08A819B81AC81BD81880FC1
:10052000991FAA1FBB1F880F991FAA1FBB1F880FE7
:10053000991FAA1FBB1F880F991FAA1FBB1F880FD7
:10054000991FAA1FBB1F880F991FAA1FBB1FBC01A1
:10055000CD01660F771F881F991F0E940F049B0112
:10056000AC0160E074E284E79BE40E946E0320E04B
:1005700030E040E05EE30E9401030E94E00360B9C6
:1005800091B18881892B81B996B78981892B86BFE2
:1005900086B7846086BFDF91CF91089586B7806863
:1005A00086BF86B7806286BF86B7846086BF06B680
:1005B00007FEFDCF089586B7806886BF86B7806145
:1005C00086BF86B7846086BF089583B986B7806882
:1005D00086BF86B7846086BF06B607FEFDCF089546
:1005E00086B7806886BF86B78F7B86BF86B78460F4
:1005F00086BF06B607FEFDCF83B1089581B1887F1F
:1006000008955058BB27AA270E9419030C9463042D
:100610000E94550438F00E945C0420F039F49F3F9A
:1006200019F426F40C9452040EF4E095E7FB0C94B4
:100630004C04E92F0E94740458F3BA176207730739
:100640008407950720F079F4A6F50C9496040EF42F
:10065000E0950B2EBA2FA02D0B01B90190010C01D2
:10066000CA01A0011124FF27591B99F0593F50F4EA
:10067000503E68F11A16F040A22F232F342F442742
:10068000585FF3CF469537952795A795F04053953A
:10069000C9F77EF41F16BA0B620B730B840BBAF00A
:1006A0009150A1F0FF0FBB1F661F771F881FC2F775
:1006B0000EC0BA0F621F731F841F48F48795779589
:1006C0006795B795F7959E3F08F0B0CF9395880F43
:1006D00008F09927EE0F9795879508950E94820359
:1006E0000C9463040E945C0458F00E94550440F08E
:1006F00029F45F3F29F00C944C0451110C94970499
:100700000C9452040E94740468F39923B1F35523A6
:1007100091F3951B550BBB27AA2762177307840714
:1007200038F09F5F5F4F220F331F441FAA1FA9F3AA
:1007300035D00E2E3AF0E0E832D091505040E69598
:10074000001CCAF72BD0FE2F29D0660F771F881FF9
:10075000BB1F261737074807AB07B0E809F0BB0BEC
:10076000802DBF01FF2793585F4F3AF09E3F510500
:1007700078F00C944C040C9497045F3FE4F3983E9B
:10078000D4F3869577956795B795F7959F5FC9F7E9
:10079000880F911D9695879597F90895E1E0660F6A
:1007A000771F881FBB1F621773078407BA0720F0E3
:1007B000621B730B840BBA0BEE1F88F7E09508954C
:1007C0000E947C0488F09F5798F0B92F9927B75161
:1007D000B0F0E1F0660F771F881F991F1AF0BA95E5
:1007E000C9F714C0B13091F00E949604B1E00895A9
:1007F0000C949604672F782F8827B85F39F0B93F9B
:10080000CCF3869577956795B395D9F73EF4909597
:100810008095709561957F4F8F4F9F4F0895E89415
:1008200009C097FB3EF490958095709561957F4F38
:100830008F4F9F4F9923A9F0F92F96E9BB279395E6
:10084000F695879577956795B795F111F8CFFAF4F6
:10085000BB0F11F460FF1BC06F5F7F4F8F4F9F4F27
:1008600016C0882311F096E911C0772321F09EE885
:10087000872F762F05C0662371F096E8862F70E0EB
:1008800060E02AF09A95660F771F881FDAF7880FC5
:100890009695879597F9089597F99F6780E870E096
:1008A00060E008959FEF80EC089500240A941616E6
:1008B000170618060906089500240A94121613064E
:1008C000140605060895092E0394000C11F48823DC
:1008D00052F0BB0F40F4BF2B11F460FF04C06F5FF8
:1008E0007F4F8F4F9F4F089557FD9058440F551FCE
:1008F00059F05F3F71F04795880F97FB991F61F0A2
:100900009F3F79F087950895121613061406551F18
:10091000F2CF4695F1DF08C0161617061806991F84
:10092000F1CF86957105610508940895E894BB2779
:1009300066277727CB0197F908950E94B0040C949D
:1009400063040E94550438F00E945C0420F0952353
:1009500011F00C944C040C94520411240C94970440
:100960000E94740470F3959FC1F3950F50E0551FDA
:10097000629FF001729FBB27F00DB11D639FAA27F4
:10098000F00DB11DAA1F649F6627B00DA11D661F43
:10099000829F2227B00DA11D621F739FB00DA11D64
:1009A000621F839FA00D611D221F749F3327A00D1E
:1009B000611D231F849F600D211D822F762F6A2FBA
:1009C00011249F5750409AF0F1F088234AF0EE0F1F
:1009D000FF1FBB1F661F771F881F91505040A9F74C
:1009E0009E3F510580F00C944C040C9497045F3F9B
:1009F000E4F3983ED4F3869577956795B795F79588
:100A0000E7959F5FC1F7FE2B880F911D96958795FF
:100A100097F90895BB274A3031F4992322F4BDE2B7
:100A2000909581959F4F0C941605BB27FB01552788
:100A3000AA27880F991FAA1FA41710F0A41B83953B
:100A40005051B9F7A05DAA3308F0A95DA1930097B2
:100A500079F7B111B1931192CB010C942F05DC0100
:100A6000FC01672F71917723E1F7329704C07C91E5
:100A70006D9370836291AE17BF07C8F30895F89421
:020A8000FFCFA6
:100A820046726F6D20454550524F4D000000A086C2
:020A9200010061
:00000001FF
