:100000000C942A000C9447000C9447000C94470071
:100010000C9447000C9447000C9447000C94470044
:100020000C9447000C9447000C9447000C94470034
:100030000C9447000C9447000C9447000C94470024
:100040000C9447000C9447000C9447000C94470014
:100050000C94470011241FBECFE5D8E0DEBFCDBF12
:1000600010E0A0E6B0E0E8EEF7E002C005900D92E7
:10007000AE37B107D9F720E0AEE7B0E001C01D927E
:10008000A038B207E1F70E9499000C94F2030C9497
:10009000000041E065E084E390E00E94A00041E0C0
:1000A00066E084E390E00E94A00041E065E081E327
:1000B00090E00E94A0008AE690E00E94DC00089593
:1000C000CF93C62F882319F0813071F019C041E019
:1000D00065E085E390E00E94BE0040E066E085E3D5
:1000E00090E00E94BE000CC040E065E085E390E037
:1000F0000E94BE0041E066E085E390E00E94BE0001
:10010000C13051F018F0C23069F011C064E170E004
:1001100081E00E94CD010BC062E370E081E00E94AB
:10012000CD0105C06AE570E081E00E94CD01CF916C
:1001300008950E94490061E080E00E946000FBCFCA
:10014000442319F0413071F00895FC01408121E011
:1001500030E002C0220F331F6A95E2F72095242376
:1001600020830895FC01408121E030E002C0220F8D
:10017000331F6A95E2F7242B20830895442319F056
:10018000413071F00895FC01408121E030E002C06F
:10019000220F331F6A95E2F72095242320830895C8
:1001A000FC01408121E030E002C0220F331F6A953C
:1001B000E2F7242B20830895CF92DF92EF92FF92F3
:1001C0000F931F93CF93DF93FC018081882319F055
:1001D000813099F1D9C013BE12BE93B733818181AA
:1001E0002281832B822B892B83BF82818032B1F0C5
:1001F000803309F0C9C08085918524E630E0281B52
:10020000390B3695279536952795ABE7B4E10E94D3
:10021000E3039695879581958CBFB6C0208531857F
:100220003695279536952795ABE7B4E10E94E30311
:100230009695879581958CBFA7C01FBC1EBC1DBC21
:100240001CBC8181803479F08834C9F48FB58E7FED
:100250008FBD8FB582608FBD8EB588608EBD8EB527
:1002600080618EBD0CC08FB581608FBD8FB58260FF
:100270008FBD8EB5877F8EBD8EB580618EBDEF013F
:10028000068117816481758180E090E00E94E80218
:100290009B01AC0160E070E08AE794E40E944702B1
:1002A0006B017C01B80180E090E00E94E802A701A8
:1002B00096010E9476039B01AC0160E074E284E742
:1002C00099E40E9447020E94B9026150710970933B
:1002D0007F0060937E0077BD66BD8A81803261F1C8
:1002E000803309F04DC08FB580648FBD8FB58068B5
:1002F0008FBD8885998564E670E0681B790B80E086
:1003000090E00E94E80220E030E048EC52E40E94D5
:1003100047026B017C0160917E0070917F0080E05C
:1003200090E00E94E802A70196010E9476030E94D5
:10033000B9027BBD6ABD24C08FB58F7B8FBD8FB5E1
:1003400080688FBD6885798580E090E00E94E80232
:1003500020E030E048EC52E40E9447026B017C014F
:1003600060917E0070917F0080E090E00E94E80242
:10037000A70196010E9476030E94B9027BBD6ABD67
:100380009EB58B81892B8EBDDF91CF911F910F91EF
:10039000FF90EF90DF90CF900895CF92DF92EF9291
:1003A000FF92882319F0813039F16CC0809162008E
:1003B0008032A1F0803309F065C024E630E0261BCE
:1003C000370B3695279536952795ABE7B4E10E9414
:1003D000E3039695879581958CBF54C09B01369514
:1003E000279536952795ABE7B4E10E94E3039695F0
:1003F000879581958CBF46C080916200803231F133
:10040000803309F03FC084E690E09C01261B370B47
:10041000B90180E090E00E94E80220E030E048EC82
:1004200052E40E9447026B017C0160917E00709152
:100430007F0080E090E00E94E802A70196010E9400
:1004400076030E94B9027BBD6ABD1CC080E090E0CB
:100450000E94E80220E030E048EC52E40E944702AB
:100460006B017C0160917E0070917F0080E090E0E4
:100470000E94E802A70196010E9476030E94B90239
:100480007BBD6ABDFF90EF90DF90CF9008950E94F2
:100490005B020C943C030E94350358F00E942E032B
:1004A00040F029F45F3F29F00C94250351110C947E
:1004B00070030C942B030E944D0368F39923B1F34E
:1004C000552391F3951B550BBB27AA27621773077A
:1004D000840738F09F5F5F4F220F331F441FAA1F0E
:1004E000A9F335D00E2E3AF0E0E832D091505040CA
:1004F000E695001CCAF72BD0FE2F29D0660F771F78
:10050000881FBB1F261737074807AB07B0E809F05D
:10051000BB0B802DBF01FF2793585F4F3AF09E3FE2
:10052000510578F00C9425030C9470035F3FE4F3BD
:10053000983ED4F3869577956795B795F7959F5F25
:10054000C9F7880F911D9695879597F90895E1E071
:10055000660F771F881FBB1F621773078407BA07D0
:1005600020F0621B730B840BBA0BEE1F88F7E0952B
:1005700008950E94550388F09F5798F0B92F992746
:10058000B751B0F0E1F0660F771F881F991F1AF07E
:10059000BA95C9F714C0B13091F00E946F03B1E071
:1005A00008950C946F03672F782F8827B85F39F070
:1005B000B93FCCF3869577956795B395D9F73EF417
:1005C00090958095709561957F4F8F4F9F4F0895BF
:1005D000E89409C097FB3EF49095809570956195DD
:1005E0007F4F8F4F9F4F9923A9F0F92F96E9BB2793
:1005F0009395F695879577956795B795F111F8CF0F
:10060000FAF4BB0F11F460FF1BC06F5F7F4F8F4F79
:100610009F4F16C0882311F096E911C0772321F06F
:100620009EE8872F762F05C0662371F096E8862F07
:1006300070E060E02AF09A95660F771F881FDAF75E
:10064000880F9695879597F9089597F99F6780E8A1
:1006500070E060E008959FEF80EC089500240A9414
:100660001616170618060906089500240A9412168D
:100670001306140605060895092E0394000C11F4C0
:10068000882352F0BB0F40F4BF2B11F460FF04C06D
:100690006F5F7F4F8F4F9F4F089557FD9058440FC6
:1006A000551F59F05F3F71F04795880F97FB991FD1
:1006B00061F09F3F79F0879508951216130614068E
:1006C000551FF2CF4695F1DF08C01616170618061B
:1006D000991FF1CF86957105610508940895E894F6
:1006E000BB2766277727CB0197F908950E948903D6
:1006F0000C943C030E942E0338F00E94350320F036
:10070000952311F00C9425030C942B0311240C94C5
:1007100070030E944D0370F3959FC1F3950F50E055
:10072000551F629FF001729FBB27F00DB11D639FA3
:10073000AA27F00DB11DAA1F649F6627B00DA11D49
:10074000661F829F2227B00DA11D621F739FB00DEF
:10075000A11D621F839FA00D611D221F749F33275F
:10076000A00D611D231F849F600D211D822F762FF8
:100770006A2F11249F5750409AF0F1F088234AF0D5
:10078000EE0FFF1FBB1F661F771F881F9150504041
:10079000A9F79E3F510580F00C9425030C9470033B
:1007A0005F3FE4F3983ED4F3869577956795B795C8
:1007B000F795E7959F5FC1F7FE2B880F911D9695E2
:1007C000879597F90895A29FB001B39FC001A39F99
:1007D000700D811D1124911DB29F700D811D11247A
:0807E000911D0895F894FFCF6C
:1007E80000483004010000013200014830030100D4
:0E07F8004000320002483005010000045000AD
:00000001FF
