S01B000045787465726E616C5F496E74657272757074732E7372656327
S11300000C942A000C9427010C943C000C943C00A2
S11300100C943C000C943C000C943C000C943C006C
S11300200C943C000C943C000C943C000C943C005C
S11300300C943C000C943C000C943C000C943C004C
S11300400C943C000C943C000C943C000C943C003C
S11300500C943C0011241FBECFE5D8E0DEBFCDBF19
S113006020E0A0E6B0E001C01D92A036B207E1F79F
S11300700E944F010C9465010C940000442319F074
S1130080413071F00895FC01408121E030E002C06C
S1130090220F331F6A95E2F72095242320830895C5
S11300A0FC01408121E030E002C0220F331F6A9539
S11300B0E2F7242B20830895442319F0413071F092
S11300C00895FC01408121E030E002C0220F331F7B
S11300D06A95E2F72095242320830895FC0140814A
S11300E021E030E002C0220F331F6A95E2F7242B8F
S11300F020830895FC01408121E030E002C0220FFA
S1130100331F6A95E2F72427208308958130F1F0A4
S113011030F0823089F1833009F442C0089535B754
S113012081E090E0FC0102C0EE0FFF1F6A95E2F748
S11301302E2F2095232325BF25B702C0880F991F92
S11301404A95E2F78095822385BF089535B781E00B
S113015090E0FC0102C0EE0FFF1F6A95E2F72E2F1C
S11301602095232325BF25B702C0880F991F4A95E0
S1130170E2F7822B85BF089555B781E090E09C019A
S113018002C0220F331F6A95E2F7252B25BF25B73E
S113019002C0880F991F4A95E2F7822B85BF089504
S11301A055B781E090E09C0102C0220F331F6A958D
S11301B0E2F7252B25BF25B702C0880F991F4A9562
S11301C0E2F78095822385BF0895962F813069F0E8
S11301D018F0823099F0089541E060E0892F0E9480
S11301E086008BB780648BBF089543E062E0892F5B
S11301F00E9486008BB780688BBF0895613019F028
S1130200623029F007C084B78F7B84BF03C084B7F2
S1130210806484BF8BB780628BBF0895882319F0F4
S1130220813029F008958FB78F778FBF08958FB7E6
S113023080688FBF089541E00E943E0008954230D7
S113024019F40E947A0008950E945C0008951F9298
S11302500F920FB60F9211242F933F934F935F93F6
S11302606F937F938F939F93AF93BF93EF93FF937A
S113027042E062E085E390E00E941F01FF91EF916C
S1130280BF91AF919F918F917F916F915F914F91AA
S11302903F912F910F900FBE0F901F90189562E021
S11302A080E00E94E50081E00E940E0162E081E3AB
S11302B090E00E94610162E084E390E00E941B01EF
S11102C0FFCF40E00E943E000895F894FFCF67
S9030000FC
