:100000000C942A000C943F000C943F000C943F0089
:100010000C943F000C943F000C943F000C943F0064
:100020000C943F000C943F000C943F000C943F0054
:100030000C943F000C943F000C943F000C943F0044
:100040000C943F000C943F000C943F000C943F0034
:100050000C943F0011241FBECFE5D8E0DEBFCDBF1A
:1000600010E0A0E6B0E0E4E9F2E002C005900D92F5
:10007000A037B107D9F70E9401010C9448010C94F4
:100080000000813041F080F0823041F0833049F04F
:10009000E0E0F0E00BC0E7E3F0E008C0E4E3F0E00C
:1000A00005C0E1E3F0E002C0EAE3F0E0442319F028
:1000B000413069F00895208181E090E002C0880F0E
:1000C000991F6A95E2F780958223808308952081A5
:1000D00081E090E002C0880F991F6A95E2F7822BB9
:1000E00080830895813041F080F0823041F0833088
:1000F00049F0E0E0F0E00BC0E6E3F0E008C0E3E345
:10010000F0E005C0E0E3F0E002C0E9E3F0E04081A8
:1001100081E090E09C01062E02C0220F331F0A945A
:10012000E2F7842F90E08223932302C0969587956F
:100130006A95E2F70895823031F058F0833031F05B
:10014000E0E0F0E008C0E5E3F0E005C0E2E3F0E065
:1001500002C0E8E3F0E0442319F0413069F008956B
:10016000208181E090E002C0880F991F6A95E2F734
:100170008095822380830895208181E090E002C0F1
:10018000880F991F6A95E2F7822B80830895823049
:1001900031F058F0833031F0E0E0F0E008C0E5E302
:1001A000F0E005C0E2E3F0E002C0E8E3F0E0208127
:1001B00081E090E002C0880F991F6A95E2F78227DC
:1001C00080830895CF93DF93EC0141E069818881BA
:1001D0000E94410040E0698188810E949B00DF917C
:1001E000CF910895623031F4FC01618180810E94D9
:1001F000C7000895462FFC01618180810E949B0009
:10020000089580E690E00E94E20089E690E00E9476
:10021000150189E690E00E9425018130D1F762E066
:1002200080E690E00E94F200F4CFCF93DF93EC01E0
:1002300040E0698188810E944100698188810E9433
:1002400072008A83DF91CF9108951F93CF93DF933C
:10025000EC011A81698188810E947200181789F067
:100260002FEF89EF90E0215080409040E1F700C0EF
:100270000000698188810E9472008A83813019F4AC
:1002800003C080E001C080E0DF91CF911F9108950D
:04029000F894FFCF10
:100294000202020703030100000306000302000038
:00000001FF
