S00B000044696F2E73726563FD
S11300000C942A000C943C000C943C000C943C008E
S11300100C943C000C943C000C943C000C943C006C
S11300200C943C000C943C000C943C000C943C005C
S11300300C943C000C943C000C943C000C943C004C
S11300400C943C000C943C000C943C000C943C003C
S11300500C943C0011241FBECFE5D8E0DEBFCDBF19
S113006020E0A0E6B0E001C01D92A136B207E1F79E
S11300700E948F000C94F6000C940000442319F0A5
S1130080413071F00895FC01408121E030E002C06C
S1130090220F331F6A95E2F72095242320830895C5
S11300A0FC01408121E030E002C0220F331F6A9539
S11300B0E2F7242B20830895FC01408181E090E045
S11300C09C01062E02C0220F331F0A94E2F7842FEC
S11300D090E08223932302C0969587956A95E2F770
S11300E00895442319F0413071F00895FC014081D2
S11300F021E030E002C0220F331F6A95E2F7209519
S1130100242320830895FC01408121E030E002C0D3
S1130110220F331F6A95E2F7242B2083089562E0AF
S113012081E390E00E94C00066E081E390E00E94D9
S1130130C0000E94B20062E080E390E00E94D2001E
S1130140C82F66E080E390E00E94D200C13021F421
S113015081E00E94B900EFCF813069F780E00E940E
S1130160B900E9CF41E062E08AE390E00E943E00FA
S11301700895482F62E08BE390E00E947100089597
S11301801F93CF93DF93EC01162F40E00E943E00B3
S1130190612FCE010E945C0080936000DF91CF91BB
S11301A01F9108951F93CF93DF93EC01162F0E94A4
S11301B05C0090916000891791F02FEF89EF90E037
S11301C0215080409040E1F700C00000612FCE0133
S11301D00E945C0080936000813019F403C080E0C9
S11301E001C080E0DF91CF911F910895F894FFCF73
S9030000FC
