:100000000C942A000C943C000C943C000C943C0092
:100010000C943C000C943C000C943C000C943C0070
:100020000C943C000C943C000C943C000C943C0060
:100030000C943C000C943C000C943C000C943C0050
:100040000C943C000C943C000C943C000C943C0040
:100050000C943C0011241FBECFE5D8E0DEBFCDBF1D
:1000600020E0A0E6B0E001C01D92A136B207E1F7A2
:100070000E94A7000C94F5000C940000442319F092
:10008000413071F00895FC01408121E030E002C070
:10009000220F331F6A95E2F72095242320830895C9
:1000A000FC01408121E030E002C0220F331F6A953D
:1000B000E2F7242B20830895FC01408181E090E049
:1000C0009C01062E02C0220F331F0A94E2F7842FF0
:1000D00090E08223932302C0969587956A95E2F774
:1000E0000895442319F0413071F00895FC014081D6
:1000F00021E030E002C0220F331F6A95E2F720951D
:10010000242320830895FC01408121E030E002C0D7
:10011000220F331F6A95E2F7242B20830895FC01F8
:10012000408121E030E002C0220F331F6A95E2F7E0
:1001300024272083089541E00E943E000895423024
:1001400019F40E948F0008950E947100089562E0E2
:1001500084E390E00E949B0062E081E390E00E94D3
:10016000BF0062E080E390E00E94D1008130C9F7D7
:1001700042E062E085E390E00E949F00F2CF1F938F
:10018000CF93DF93EC01162F40E00E943E00612FD9
:10019000CE010E945C0080936000DF91CF911F919F
:1001A00008951F93CF93DF93EC01162F0E945C00FC
:1001B00090916000891791F02FEF89EF90E0215026
:1001C00080409040E1F700C00000612FCE010E9406
:1001D0005C0080936000813019F403C080E001C0AE
:0E01E00080E0DF91CF911F910895F894FFCF3A
:00000001FF
